{
  "_format": "hh-sol-artifact-1",
  "contractName": "TeaSupplyChain",
  "sourceName": "contracts/TeaSupplyChain.sol",
  "abi": [
    {
      "inputs": [],
      "stateMutability": "nonpayable",
      "type": "constructor"
    },
    {
      "anonymous": false,
      "inputs": [
        {
          "indexed": true,
          "internalType": "address",
          "name": "participant",
          "type": "address"
        },
        {
          "indexed": false,
          "internalType": "enum TeaSupplyChain.Role",
          "name": "role",
          "type": "uint8"
        },
        {
          "indexed": false,
          "internalType": "string",
          "name": "name",
          "type": "string"
        }
      ],
      "name": "ParticipantRegistered",
      "type": "event"
    },
    {
      "anonymous": false,
      "inputs": [
        {
          "indexed": true,
          "internalType": "uint256",
          "name": "productId",
          "type": "uint256"
        },
        {
          "indexed": false,
          "internalType": "string",
          "name": "batchId",
          "type": "string"
        },
        {
          "indexed": true,
          "internalType": "address",
          "name": "creator",
          "type": "address"
        }
      ],
      "name": "ProductCreated",
      "type": "event"
    },
    {
      "anonymous": false,
      "inputs": [
        {
          "indexed": true,
          "internalType": "uint256",
          "name": "productId",
          "type": "uint256"
        },
        {
          "indexed": true,
          "internalType": "address",
          "name": "from",
          "type": "address"
        },
        {
          "indexed": true,
          "internalType": "address",
          "name": "to",
          "type": "address"
        },
        {
          "indexed": false,
          "internalType": "enum TeaSupplyChain.Stage",
          "name": "stage",
          "type": "uint8"
        }
      ],
      "name": "ProductTransferred",
      "type": "event"
    },
    {
      "anonymous": false,
      "inputs": [
        {
          "indexed": true,
          "internalType": "uint256",
          "name": "productId",
          "type": "uint256"
        },
        {
          "indexed": false,
          "internalType": "enum TeaSupplyChain.Stage",
          "name": "stage",
          "type": "uint8"
        },
        {
          "indexed": true,
          "internalType": "address",
          "name": "handler",
          "type": "address"
        }
      ],
      "name": "StageUpdated",
      "type": "event"
    },
    {
      "inputs": [
        {
          "internalType": "string",
          "name": "",
          "type": "string"
        }
      ],
      "name": "batchToProductId",
      "outputs": [
        {
          "internalType": "uint256",
          "name": "",
          "type": "uint256"
        }
      ],
      "stateMutability": "view",
      "type": "function"
    },
    {
      "inputs": [
        {
          "internalType": "string",
          "name": "_batchId",
          "type": "string"
        },
        {
          "internalType": "string",
          "name": "_productName",
          "type": "string"
        },
        {
          "internalType": "string",
          "name": "_origin",
          "type": "string"
        },
        {
          "internalType": "string",
          "name": "_grade",
          "type": "string"
        },
        {
          "internalType": "uint256",
          "name": "_quantity",
          "type": "uint256"
        },
        {
          "internalType": "string",
          "name": "_notes",
          "type": "string"
        }
      ],
      "name": "createProduct",
      "outputs": [],
      "stateMutability": "nonpayable",
      "type": "function"
    },
    {
      "inputs": [
        {
          "internalType": "address",
          "name": "_owner",
          "type": "address"
        }
      ],
      "name": "getAllProductsByOwner",
      "outputs": [
        {
          "internalType": "uint256[]",
          "name": "",
          "type": "uint256[]"
        }
      ],
      "stateMutability": "view",
      "type": "function"
    },
    {
      "inputs": [
        {
          "internalType": "address",
          "name": "_participant",
          "type": "address"
        }
      ],
      "name": "getParticipant",
      "outputs": [
        {
          "components": [
            {
              "internalType": "address",
              "name": "participantAddress",
              "type": "address"
            },
            {
              "internalType": "enum TeaSupplyChain.Role",
              "name": "role",
              "type": "uint8"
            },
            {
              "internalType": "string",
              "name": "name",
              "type": "string"
            },
            {
              "internalType": "string",
              "name": "location",
              "type": "string"
            },
            {
              "internalType": "bool",
              "name": "isActive",
              "type": "bool"
            }
          ],
          "internalType": "struct TeaSupplyChain.Participant",
          "name": "",
          "type": "tuple"
        }
      ],
      "stateMutability": "view",
      "type": "function"
    },
    {
      "inputs": [
        {
          "internalType": "string",
          "name": "_batchId",
          "type": "string"
        }
      ],
      "name": "getProductByBatch",
      "outputs": [
        {
          "components": [
            {
              "internalType": "uint256",
              "name": "productId",
              "type": "uint256"
            },
            {
              "internalType": "string",
              "name": "batchId",
              "type": "string"
            },
            {
              "internalType": "string",
              "name": "productName",
              "type": "string"
            },
            {
              "internalType": "string",
              "name": "origin",
              "type": "string"
            },
            {
              "internalType": "string",
              "name": "grade",
              "type": "string"
            },
            {
              "internalType": "uint256",
              "name": "quantity",
              "type": "uint256"
            },
            {
              "internalType": "uint256",
              "name": "timestamp",
              "type": "uint256"
            },
            {
              "internalType": "enum TeaSupplyChain.Stage",
              "name": "currentStage",
              "type": "uint8"
            },
            {
              "internalType": "address",
              "name": "currentOwner",
              "type": "address"
            },
            {
              "internalType": "bool",
              "name": "exists",
              "type": "bool"
            }
          ],
          "internalType": "struct TeaSupplyChain.Product",
          "name": "",
          "type": "tuple"
        }
      ],
      "stateMutability": "view",
      "type": "function"
    },
    {
      "inputs": [
        {
          "internalType": "uint256",
          "name": "_productId",
          "type": "uint256"
        }
      ],
      "name": "getProductHistory",
      "outputs": [
        {
          "components": [
            {
              "internalType": "address",
              "name": "handler",
              "type": "address"
            },
            {
              "internalType": "string",
              "name": "location",
              "type": "string"
            },
            {
              "internalType": "uint256",
              "name": "timestamp",
              "type": "uint256"
            },
            {
              "internalType": "string",
              "name": "notes",
              "type": "string"
            },
            {
              "internalType": "enum TeaSupplyChain.Stage",
              "name": "stage",
              "type": "uint8"
            }
          ],
          "internalType": "struct TeaSupplyChain.StageInfo[]",
          "name": "",
          "type": "tuple[]"
        }
      ],
      "stateMutability": "view",
      "type": "function"
    },
    {
      "inputs": [],
      "name": "owner",
      "outputs": [
        {
          "internalType": "address",
          "name": "",
          "type": "address"
        }
      ],
      "stateMutability": "view",
      "type": "function"
    },
    {
      "inputs": [
        {
          "internalType": "address",
          "name": "",
          "type": "address"
        }
      ],
      "name": "participants",
      "outputs": [
        {
          "internalType": "address",
          "name": "participantAddress",
          "type": "address"
        },
        {
          "internalType": "enum TeaSupplyChain.Role",
          "name": "role",
          "type": "uint8"
        },
        {
          "internalType": "string",
          "name": "name",
          "type": "string"
        },
        {
          "internalType": "string",
          "name": "location",
          "type": "string"
        },
        {
          "internalType": "bool",
          "name": "isActive",
          "type": "bool"
        }
      ],
      "stateMutability": "view",
      "type": "function"
    },
    {
      "inputs": [],
      "name": "productCounter",
      "outputs": [
        {
          "internalType": "uint256",
          "name": "",
          "type": "uint256"
        }
      ],
      "stateMutability": "view",
      "type": "function"
    },
    {
      "inputs": [
        {
          "internalType": "uint256",
          "name": "",
          "type": "uint256"
        },
        {
          "internalType": "uint256",
          "name": "",
          "type": "uint256"
        }
      ],
      "name": "productHistory",
      "outputs": [
        {
          "internalType": "address",
          "name": "handler",
          "type": "address"
        },
        {
          "internalType": "string",
          "name": "location",
          "type": "string"
        },
        {
          "internalType": "uint256",
          "name": "timestamp",
          "type": "uint256"
        },
        {
          "internalType": "string",
          "name": "notes",
          "type": "string"
        },
        {
          "internalType": "enum TeaSupplyChain.Stage",
          "name": "stage",
          "type": "uint8"
        }
      ],
      "stateMutability": "view",
      "type": "function"
    },
    {
      "inputs": [
        {
          "internalType": "uint256",
          "name": "",
          "type": "uint256"
        }
      ],
      "name": "products",
      "outputs": [
        {
          "internalType": "uint256",
          "name": "productId",
          "type": "uint256"
        },
        {
          "internalType": "string",
          "name": "batchId",
          "type": "string"
        },
        {
          "internalType": "string",
          "name": "productName",
          "type": "string"
        },
        {
          "internalType": "string",
          "name": "origin",
          "type": "string"
        },
        {
          "internalType": "string",
          "name": "grade",
          "type": "string"
        },
        {
          "internalType": "uint256",
          "name": "quantity",
          "type": "uint256"
        },
        {
          "internalType": "uint256",
          "name": "timestamp",
          "type": "uint256"
        },
        {
          "internalType": "enum TeaSupplyChain.Stage",
          "name": "currentStage",
          "type": "uint8"
        },
        {
          "internalType": "address",
          "name": "currentOwner",
          "type": "address"
        },
        {
          "internalType": "bool",
          "name": "exists",
          "type": "bool"
        }
      ],
      "stateMutability": "view",
      "type": "function"
    },
    {
      "inputs": [
        {
          "internalType": "address",
          "name": "_participant",
          "type": "address"
        },
        {
          "internalType": "uint8",
          "name": "_role",
          "type": "uint8"
        },
        {
          "internalType": "string",
          "name": "_name",
          "type": "string"
        },
        {
          "internalType": "string",
          "name": "_location",
          "type": "string"
        }
      ],
      "name": "registerParticipant",
      "outputs": [],
      "stateMutability": "nonpayable",
      "type": "function"
    },
    {
      "inputs": [
        {
          "internalType": "uint256",
          "name": "_productId",
          "type": "uint256"
        },
        {
          "internalType": "enum TeaSupplyChain.Stage",
          "name": "_newStage",
          "type": "uint8"
        },
        {
          "internalType": "string",
          "name": "_notes",
          "type": "string"
        }
      ],
      "name": "updateProductStage",
      "outputs": [],
      "stateMutability": "nonpayable",
      "type": "function"
    }
  ],
  "bytecode": "0x608060405234801561001057600080fd5b5033600560006101000a81548173ffffffffffffffffffffffffffffffffffffffff021916908373ffffffffffffffffffffffffffffffffffffffff1602179055506040518060a001604052803373ffffffffffffffffffffffffffffffffffffffff16815260200160068081111561008c5761008b610217565b5b81526020016040518060400160405280601381526020017f54656120426f61726420417574686f726974790000000000000000000000000081525081526020016040518060400160405280600581526020017f496e6469610000000000000000000000000000000000000000000000000000008152508152602001600115158152506000803373ffffffffffffffffffffffffffffffffffffffff1673ffffffffffffffffffffffffffffffffffffffff16815260200190815260200160002060008201518160000160006101000a81548173ffffffffffffffffffffffffffffffffffffffff021916908373ffffffffffffffffffffffffffffffffffffffff16021790555060208201518160000160146101000a81548160ff021916908360068111156101be576101bd610217565b5b021790555060408201518160010190816101d89190610496565b5060608201518160020190816101ee9190610496565b5060808201518160030160006101000a81548160ff021916908315150217905550905050610568565b7f4e487b7100000000000000000000000000000000000000000000000000000000600052602160045260246000fd5b600081519050919050565b7f4e487b7100000000000000000000000000000000000000000000000000000000600052604160045260246000fd5b7f4e487b7100000000000000000000000000000000000000000000000000000000600052602260045260246000fd5b600060028204905060018216806102c757607f821691505b6020821081036102da576102d9610280565b5b50919050565b60008190508160005260206000209050919050565b60006020601f8301049050919050565b600082821b905092915050565b6000600883026103427fffffffffffffffffffffffffffffffffffffffffffffffffffffffffffffffff82610305565b61034c8683610305565b95508019841693508086168417925050509392505050565b6000819050919050565b6000819050919050565b600061039361038e61038984610364565b61036e565b610364565b9050919050565b6000819050919050565b6103ad83610378565b6103c16103b98261039a565b848454610312565b825550505050565b600090565b6103d66103c9565b6103e18184846103a4565b505050565b5b81811015610405576103fa6000826103ce565b6001810190506103e7565b5050565b601f82111561044a5761041b816102e0565b610424846102f5565b81016020851015610433578190505b61044761043f856102f5565b8301826103e6565b50505b505050565b600082821c905092915050565b600061046d6000198460080261044f565b1980831691505092915050565b6000610486838361045c565b9150826002028217905092915050565b61049f82610246565b67ffffffffffffffff8111156104b8576104b7610251565b5b6104c282546102af565b6104cd828285610409565b600060209050601f83116001811461050057600084156104ee578287015190505b6104f8858261047a565b865550610560565b601f19841661050e866102e0565b60005b8281101561053657848901518255600182019150602085019450602081019050610511565b86831015610553578489015161054f601f89168261045c565b8355505b6001600288020188555050505b505050505050565b613945806105776000396000f3fe608060405234801561001057600080fd5b50600436106100cf5760003560e01c806357a096a11161008c5780637acc0b20116100665780637acc0b20146102525780638da5cb5b1461028b5780638e8193f3146102a9578063a5d7ceec146102d9576100cf565b806357a096a1146101d6578063659070b9146102065780637143059f14610222576100cf565b806309e69ede146100d45780631f16653b146101085780633a7d23761461012657806348f101841461015a578063533a19cf1461017657806355442bae146101a6575b600080fd5b6100ee60048036038101906100e99190612390565b6102f5565b6040516100ff9594939291906124ee565b60405180910390f35b610110610475565b60405161011d9190612568565b60405180910390f35b610140600480360381019061013b91906125af565b61047b565b604051610151959493929190612637565b60405180910390f35b610174600480360381019061016f9190612806565b61060b565b005b610190600480360381019061018b91906128a5565b610936565b60405161019d9190612568565b60405180910390f35b6101c060048036038101906101bb9190612390565b610964565b6040516101cd91906129ac565b60405180910390f35b6101f060048036038101906101eb91906129ce565b610b1d565b6040516101fd9190612ba2565b60405180910390f35b610220600480360381019061021b9190612be9565b610d4e565b005b61023c60048036038101906102379190612390565b6112f4565b6040516102499190612cf3565b60405180910390f35b61026c600480360381019061026791906129ce565b61151c565b6040516102829a99989796959493929190612d15565b60405180910390f35b6102936117ca565b6040516102a09190612dcd565b60405180910390f35b6102c360048036038101906102be91906128a5565b6117f0565b6040516102d09190612ed7565b60405180910390f35b6102f360048036038101906102ee9190612ef9565b611b97565b005b60006020528060005260406000206000915090508060000160009054906101000a900473ffffffffffffffffffffffffffffffffffffffff16908060000160149054906101000a900460ff169080600101805461035190613041565b80601f016020809104026020016040519081016040528092919081815260200182805461037d90613041565b80156103ca5780601f1061039f576101008083540402835291602001916103ca565b820191906000526020600020905b8154815290600101906020018083116103ad57829003601f168201915b5050505050908060020180546103df90613041565b80601f016020809104026020016040519081016040528092919081815260200182805461040b90613041565b80156104585780601f1061042d57610100808354040283529160200191610458565b820191906000526020600020905b81548152906001019060200180831161043b57829003601f168201915b5050505050908060030160009054906101000a900460ff16905085565b60045481565b6002602052816000526040600020818154811061049757600080fd5b9060005260206000209060050201600091509150508060000160009054906101000a900473ffffffffffffffffffffffffffffffffffffffff16908060010180546104e190613041565b80601f016020809104026020016040519081016040528092919081815260200182805461050d90613041565b801561055a5780601f1061052f5761010080835404028352916020019161055a565b820191906000526020600020905b81548152906001019060200180831161053d57829003601f168201915b50505050509080600201549080600301805461057590613041565b80601f01602080910402602001604051908101604052809291908181526020018280546105a190613041565b80156105ee5780601f106105c3576101008083540402835291602001916105ee565b820191906000526020600020905b8154815290600101906020018083116105d157829003601f168201915b5050505050908060040160009054906101000a900460ff16905085565b600560009054906101000a900473ffffffffffffffffffffffffffffffffffffffff1673ffffffffffffffffffffffffffffffffffffffff163373ffffffffffffffffffffffffffffffffffffffff161461069b576040517f08c379a0000000000000000000000000000000000000000000000000000000008152600401610692906130e4565b60405180910390fd5b60008360ff161180156106b2575060068360ff1611155b6106f1576040517f08c379a00000000000000000000000000000000000000000000000000000000081526004016106e890613150565b60405180910390fd5b600073ffffffffffffffffffffffffffffffffffffffff168473ffffffffffffffffffffffffffffffffffffffff1603610760576040517f08c379a0000000000000000000000000000000000000000000000000000000008152600401610757906131bc565b60405180910390fd5b6040518060a001604052808573ffffffffffffffffffffffffffffffffffffffff1681526020018460ff16600681111561079d5761079c6123cc565b5b60068111156107af576107ae6123cc565b5b8152602001838152602001828152602001600115158152506000808673ffffffffffffffffffffffffffffffffffffffff1673ffffffffffffffffffffffffffffffffffffffff16815260200190815260200160002060008201518160000160006101000a81548173ffffffffffffffffffffffffffffffffffffffff021916908373ffffffffffffffffffffffffffffffffffffffff16021790555060208201518160000160146101000a81548160ff02191690836006811115610877576108766123cc565b5b021790555060408201518160010190816108919190613388565b5060608201518160020190816108a79190613388565b5060808201518160030160006101000a81548160ff0219169083151502179055509050508373ffffffffffffffffffffffffffffffffffffffff167fe3564c470dc79d88d220de1a64bc335ec0a928450ce631293691bba84dd9a6118460ff166006811115610919576109186123cc565b5b8460405161092892919061345a565b60405180910390a250505050565b6003818051602081018201805184825260208301602085012081835280955050505050506000915090505481565b6060600060045467ffffffffffffffff811115610984576109836126db565b5b6040519080825280602002602001820160405280156109b25781602001602082028036833780820191505090505b509050600080600190505b6004548111610a71578473ffffffffffffffffffffffffffffffffffffffff166001600083815260200190815260200160002060070160019054906101000a900473ffffffffffffffffffffffffffffffffffffffff1673ffffffffffffffffffffffffffffffffffffffff1603610a5e5780838381518110610a4357610a4261348a565b5b6020026020010181815250508180610a5a906134e8565b9250505b8080610a69906134e8565b9150506109bd565b5060008167ffffffffffffffff811115610a8e57610a8d6126db565b5b604051908082528060200260200182016040528015610abc5781602001602082028036833780820191505090505b50905060005b82811015610b1157838181518110610add57610adc61348a565b5b6020026020010151828281518110610af857610af761348a565b5b6020026020010181815250508080600101915050610ac2565b50809350505050919050565b606060026000838152602001908152602001600020805480602002602001604051908101604052809291908181526020016000905b82821015610d4357838290600052602060002090600502016040518060a00160405290816000820160009054906101000a900473ffffffffffffffffffffffffffffffffffffffff1673ffffffffffffffffffffffffffffffffffffffff1673ffffffffffffffffffffffffffffffffffffffff168152602001600182018054610bdb90613041565b80601f0160208091040260200160405190810160405280929190818152602001828054610c0790613041565b8015610c545780601f10610c2957610100808354040283529160200191610c54565b820191906000526020600020905b815481529060010190602001808311610c3757829003601f168201915b5050505050815260200160028201548152602001600382018054610c7790613041565b80601f0160208091040260200160405190810160405280929190818152602001828054610ca390613041565b8015610cf05780601f10610cc557610100808354040283529160200191610cf0565b820191906000526020600020905b815481529060010190602001808311610cd357829003601f168201915b505050505081526020016004820160009054906101000a900460ff166005811115610d1e57610d1d6123cc565b5b6005811115610d3057610d2f6123cc565b5b8152505081526020019060010190610b52565b505050509050919050565b6000803373ffffffffffffffffffffffffffffffffffffffff1673ffffffffffffffffffffffffffffffffffffffff16815260200190815260200160002060030160009054906101000a900460ff16610ddc576040517f08c379a0000000000000000000000000000000000000000000000000000000008152600401610dd3906135a2565b60405180910390fd5b826001600082815260200190815260200160002060070160159054906101000a900460ff16610e40576040517f08c379a0000000000000000000000000000000000000000000000000000000008152600401610e379061360e565b60405180910390fd5b600060016000868152602001908152602001600020905060018160070160009054906101000a900460ff166005811115610e7d57610e7c6123cc565b5b610e87919061362e565b60ff16846005811115610e9d57610e9c6123cc565b5b60ff1614610ee0576040517f08c379a0000000000000000000000000000000000000000000000000000000008152600401610ed7906136af565b60405180910390fd5b6000610eeb85612134565b9050806006811115610f0057610eff6123cc565b5b6000803373ffffffffffffffffffffffffffffffffffffffff1673ffffffffffffffffffffffffffffffffffffffff16815260200190815260200160002060000160149054906101000a900460ff166006811115610f6157610f606123cc565b5b14610fa1576040517f08c379a0000000000000000000000000000000000000000000000000000000008152600401610f989061371b565b60405180910390fd5b848260070160006101000a81548160ff02191690836005811115610fc857610fc76123cc565b5b0217905550338260070160016101000a81548173ffffffffffffffffffffffffffffffffffffffff021916908373ffffffffffffffffffffffffffffffffffffffff160217905550600260008781526020019081526020016000206040518060a001604052803373ffffffffffffffffffffffffffffffffffffffff1681526020016000803373ffffffffffffffffffffffffffffffffffffffff1673ffffffffffffffffffffffffffffffffffffffff168152602001908152602001600020600201805461109690613041565b80601f01602080910402602001604051908101604052809291908181526020018280546110c290613041565b801561110f5780601f106110e45761010080835404028352916020019161110f565b820191906000526020600020905b8154815290600101906020018083116110f257829003601f168201915b50505050508152602001428152602001868152602001876005811115611138576111376123cc565b5b815250908060018154018082558091505060019003906000526020600020906005020160009091909190915060008201518160000160006101000a81548173ffffffffffffffffffffffffffffffffffffffff021916908373ffffffffffffffffffffffffffffffffffffffff16021790555060208201518160010190816111c09190613388565b506040820151816002015560608201518160030190816111e09190613388565b5060808201518160040160006101000a81548160ff0219169083600581111561120c5761120b6123cc565b5b021790555050503373ffffffffffffffffffffffffffffffffffffffff16867f20f13d5051a99e5a3e1fe067b2dad576cc3253d70a33e0c746becebd65d4baa48760405161125a919061373b565b60405180910390a33373ffffffffffffffffffffffffffffffffffffffff168260070160019054906101000a900473ffffffffffffffffffffffffffffffffffffffff1673ffffffffffffffffffffffffffffffffffffffff16877fb8ec5bed6096f539515867ed6d75eac9421558314f8dcb1349f7c60978cad298886040516112e4919061373b565b60405180910390a4505050505050565b6112fc612248565b6000808373ffffffffffffffffffffffffffffffffffffffff1673ffffffffffffffffffffffffffffffffffffffff1681526020019081526020016000206040518060a00160405290816000820160009054906101000a900473ffffffffffffffffffffffffffffffffffffffff1673ffffffffffffffffffffffffffffffffffffffff1673ffffffffffffffffffffffffffffffffffffffff1681526020016000820160149054906101000a900460ff1660068111156113c0576113bf6123cc565b5b60068111156113d2576113d16123cc565b5b81526020016001820180546113e690613041565b80601f016020809104026020016040519081016040528092919081815260200182805461141290613041565b801561145f5780601f106114345761010080835404028352916020019161145f565b820191906000526020600020905b81548152906001019060200180831161144257829003601f168201915b5050505050815260200160028201805461147890613041565b80601f01602080910402602001604051908101604052809291908181526020018280546114a490613041565b80156114f15780601f106114c6576101008083540402835291602001916114f1565b820191906000526020600020905b8154815290600101906020018083116114d457829003601f168201915b505050505081526020016003820160009054906101000a900460ff1615151515815250509050919050565b600160205280600052604060002060009150905080600001549080600101805461154590613041565b80601f016020809104026020016040519081016040528092919081815260200182805461157190613041565b80156115be5780601f10611593576101008083540402835291602001916115be565b820191906000526020600020905b8154815290600101906020018083116115a157829003601f168201915b5050505050908060020180546115d390613041565b80601f01602080910402602001604051908101604052809291908181526020018280546115ff90613041565b801561164c5780601f106116215761010080835404028352916020019161164c565b820191906000526020600020905b81548152906001019060200180831161162f57829003601f168201915b50505050509080600301805461166190613041565b80601f016020809104026020016040519081016040528092919081815260200182805461168d90613041565b80156116da5780601f106116af576101008083540402835291602001916116da565b820191906000526020600020905b8154815290600101906020018083116116bd57829003601f168201915b5050505050908060040180546116ef90613041565b80601f016020809104026020016040519081016040528092919081815260200182805461171b90613041565b80156117685780601f1061173d57610100808354040283529160200191611768565b820191906000526020600020905b81548152906001019060200180831161174b57829003601f168201915b5050505050908060050154908060060154908060070160009054906101000a900460ff16908060070160019054906101000a900473ffffffffffffffffffffffffffffffffffffffff16908060070160159054906101000a900460ff1690508a565b600560009054906101000a900473ffffffffffffffffffffffffffffffffffffffff1681565b6117f86122a1565b600060038360405161180a9190613792565b90815260200160405180910390205490506000810361185e576040517f08c379a0000000000000000000000000000000000000000000000000000000008152600401611855906137f5565b60405180910390fd5b60016000828152602001908152602001600020604051806101400160405290816000820154815260200160018201805461189790613041565b80601f01602080910402602001604051908101604052809291908181526020018280546118c390613041565b80156119105780601f106118e557610100808354040283529160200191611910565b820191906000526020600020905b8154815290600101906020018083116118f357829003601f168201915b5050505050815260200160028201805461192990613041565b80601f016020809104026020016040519081016040528092919081815260200182805461195590613041565b80156119a25780601f10611977576101008083540402835291602001916119a2565b820191906000526020600020905b81548152906001019060200180831161198557829003601f168201915b505050505081526020016003820180546119bb90613041565b80601f01602080910402602001604051908101604052809291908181526020018280546119e790613041565b8015611a345780601f10611a0957610100808354040283529160200191611a34565b820191906000526020600020905b815481529060010190602001808311611a1757829003601f168201915b50505050508152602001600482018054611a4d90613041565b80601f0160208091040260200160405190810160405280929190818152602001828054611a7990613041565b8015611ac65780601f10611a9b57610100808354040283529160200191611ac6565b820191906000526020600020905b815481529060010190602001808311611aa957829003601f168201915b5050505050815260200160058201548152602001600682015481526020016007820160009054906101000a900460ff166005811115611b0857611b076123cc565b5b6005811115611b1a57611b196123cc565b5b81526020016007820160019054906101000a900473ffffffffffffffffffffffffffffffffffffffff1673ffffffffffffffffffffffffffffffffffffffff1673ffffffffffffffffffffffffffffffffffffffff1681526020016007820160159054906101000a900460ff161515151581525050915050919050565b6001806006811115611bac57611bab6123cc565b5b6000803373ffffffffffffffffffffffffffffffffffffffff1673ffffffffffffffffffffffffffffffffffffffff16815260200190815260200160002060000160149054906101000a900460ff166006811115611c0d57611c0c6123cc565b5b14611c4d576040517f08c379a0000000000000000000000000000000000000000000000000000000008152600401611c4490613861565b60405180910390fd5b6000600388604051611c5f9190613792565b90815260200160405180910390205414611cae576040517f08c379a0000000000000000000000000000000000000000000000000000000008152600401611ca5906138cd565b60405180910390fd5b60046000815480929190611cc1906134e8565b91905055506000600454905060405180610140016040528082815260200189815260200188815260200187815260200186815260200185815260200142815260200160006005811115611d1757611d166123cc565b5b81526020013373ffffffffffffffffffffffffffffffffffffffff1681526020016001151581525060016000838152602001908152602001600020600082015181600001556020820151816001019081611d719190613388565b506040820151816002019081611d879190613388565b506060820151816003019081611d9d9190613388565b506080820151816004019081611db39190613388565b5060a0820151816005015560c0820151816006015560e08201518160070160006101000a81548160ff02191690836005811115611df357611df26123cc565b5b02179055506101008201518160070160016101000a81548173ffffffffffffffffffffffffffffffffffffffff021916908373ffffffffffffffffffffffffffffffffffffffff1602179055506101208201518160070160156101000a81548160ff02191690831515021790555090505080600389604051611e759190613792565b908152602001604051809103902081905550600260008281526020019081526020016000206040518060a001604052803373ffffffffffffffffffffffffffffffffffffffff1681526020016000803373ffffffffffffffffffffffffffffffffffffffff1673ffffffffffffffffffffffffffffffffffffffff1681526020019081526020016000206002018054611f0d90613041565b80601f0160208091040260200160405190810160405280929190818152602001828054611f3990613041565b8015611f865780601f10611f5b57610100808354040283529160200191611f86565b820191906000526020600020905b815481529060010190602001808311611f6957829003601f168201915b5050505050815260200142815260200185815260200160006005811115611fb057611faf6123cc565b5b815250908060018154018082558091505060019003906000526020600020906005020160009091909190915060008201518160000160006101000a81548173ffffffffffffffffffffffffffffffffffffffff021916908373ffffffffffffffffffffffffffffffffffffffff16021790555060208201518160010190816120389190613388565b506040820151816002015560608201518160030190816120589190613388565b5060808201518160040160006101000a81548160ff02191690836005811115612084576120836123cc565b5b021790555050503373ffffffffffffffffffffffffffffffffffffffff16817faf6ffb6277511513e7d579327cc1fc57f0266df2fb11a60b13487b8c9cd2c3888a6040516120d291906138ed565b60405180910390a33373ffffffffffffffffffffffffffffffffffffffff16817f20f13d5051a99e5a3e1fe067b2dad576cc3253d70a33e0c746becebd65d4baa46000604051612122919061373b565b60405180910390a35050505050505050565b60006001600581111561214a576121496123cc565b5b82600581111561215d5761215c6123cc565b5b0361216b5760029050612243565b6002600581111561217f5761217e6123cc565b5b826005811115612192576121916123cc565b5b036121a05760039050612243565b600360058111156121b4576121b36123cc565b5b8260058111156121c7576121c66123cc565b5b036121d55760049050612243565b600460058111156121e9576121e86123cc565b5b8260058111156121fc576121fb6123cc565b5b0361220a5760059050612243565b60058081111561221d5761221c6123cc565b5b8260058111156122305761222f6123cc565b5b0361223e5760059050612243565b600090505b919050565b6040518060a00160405280600073ffffffffffffffffffffffffffffffffffffffff16815260200160006006811115612284576122836123cc565b5b815260200160608152602001606081526020016000151581525090565b60405180610140016040528060008152602001606081526020016060815260200160608152602001606081526020016000815260200160008152602001600060058111156122f2576122f16123cc565b5b8152602001600073ffffffffffffffffffffffffffffffffffffffff1681526020016000151581525090565b6000604051905090565b600080fd5b600080fd5b600073ffffffffffffffffffffffffffffffffffffffff82169050919050565b600061235d82612332565b9050919050565b61236d81612352565b811461237857600080fd5b50565b60008135905061238a81612364565b92915050565b6000602082840312156123a6576123a5612328565b5b60006123b48482850161237b565b91505092915050565b6123c681612352565b82525050565b7f4e487b7100000000000000000000000000000000000000000000000000000000600052602160045260246000fd5b6007811061240c5761240b6123cc565b5b50565b600081905061241d826123fb565b919050565b600061242d8261240f565b9050919050565b61243d81612422565b82525050565b600081519050919050565b600082825260208201905092915050565b60005b8381101561247d578082015181840152602081019050612462565b60008484015250505050565b6000601f19601f8301169050919050565b60006124a582612443565b6124af818561244e565b93506124bf81856020860161245f565b6124c881612489565b840191505092915050565b60008115159050919050565b6124e8816124d3565b82525050565b600060a08201905061250360008301886123bd565b6125106020830187612434565b8181036040830152612522818661249a565b90508181036060830152612536818561249a565b905061254560808301846124df565b9695505050505050565b6000819050919050565b6125628161254f565b82525050565b600060208201905061257d6000830184612559565b92915050565b61258c8161254f565b811461259757600080fd5b50565b6000813590506125a981612583565b92915050565b600080604083850312156125c6576125c5612328565b5b60006125d48582860161259a565b92505060206125e58582860161259a565b9150509250929050565b60068110612600576125ff6123cc565b5b50565b6000819050612611826125ef565b919050565b600061262182612603565b9050919050565b61263181612616565b82525050565b600060a08201905061264c60008301886123bd565b818103602083015261265e818761249a565b905061266d6040830186612559565b818103606083015261267f818561249a565b905061268e6080830184612628565b9695505050505050565b600060ff82169050919050565b6126ae81612698565b81146126b957600080fd5b50565b6000813590506126cb816126a5565b92915050565b600080fd5b600080fd5b7f4e487b7100000000000000000000000000000000000000000000000000000000600052604160045260246000fd5b61271382612489565b810181811067ffffffffffffffff82111715612732576127316126db565b5b80604052505050565b600061274561231e565b9050612751828261270a565b919050565b600067ffffffffffffffff821115612771576127706126db565b5b61277a82612489565b9050602081019050919050565b82818337600083830152505050565b60006127a96127a484612756565b61273b565b9050828152602081018484840111156127c5576127c46126d6565b5b6127d0848285612787565b509392505050565b600082601f8301126127ed576127ec6126d1565b5b81356127fd848260208601612796565b91505092915050565b600080600080608085870312156128205761281f612328565b5b600061282e8782880161237b565b945050602061283f878288016126bc565b935050604085013567ffffffffffffffff8111156128605761285f61232d565b5b61286c878288016127d8565b925050606085013567ffffffffffffffff81111561288d5761288c61232d565b5b612899878288016127d8565b91505092959194509250565b6000602082840312156128bb576128ba612328565b5b600082013567ffffffffffffffff8111156128d9576128d861232d565b5b6128e5848285016127d8565b91505092915050565b600081519050919050565b600082825260208201905092915050565b6000819050602082019050919050565b6129238161254f565b82525050565b6000612935838361291a565b60208301905092915050565b6000602082019050919050565b6000612959826128ee565b61296381856128f9565b935061296e8361290a565b8060005b8381101561299f5781516129868882612929565b975061299183612941565b925050600181019050612972565b5085935050505092915050565b600060208201905081810360008301526129c6818461294e565b905092915050565b6000602082840312156129e4576129e3612328565b5b60006129f28482850161259a565b91505092915050565b600081519050919050565b600082825260208201905092915050565b6000819050602082019050919050565b612a3081612352565b82525050565b600082825260208201905092915050565b6000612a5282612443565b612a5c8185612a36565b9350612a6c81856020860161245f565b612a7581612489565b840191505092915050565b612a8981612616565b82525050565b600060a083016000830151612aa76000860182612a27565b5060208301518482036020860152612abf8282612a47565b9150506040830151612ad4604086018261291a565b5060608301518482036060860152612aec8282612a47565b9150506080830151612b016080860182612a80565b508091505092915050565b6000612b188383612a8f565b905092915050565b6000602082019050919050565b6000612b38826129fb565b612b428185612a06565b935083602082028501612b5485612a17565b8060005b85811015612b905784840389528151612b718582612b0c565b9450612b7c83612b20565b925060208a01995050600181019050612b58565b50829750879550505050505092915050565b60006020820190508181036000830152612bbc8184612b2d565b905092915050565b60068110612bd157600080fd5b50565b600081359050612be381612bc4565b92915050565b600080600060608486031215612c0257612c01612328565b5b6000612c108682870161259a565b9350506020612c2186828701612bd4565b925050604084013567ffffffffffffffff811115612c4257612c4161232d565b5b612c4e868287016127d8565b9150509250925092565b612c6181612422565b82525050565b612c70816124d3565b82525050565b600060a083016000830151612c8e6000860182612a27565b506020830151612ca16020860182612c58565b5060408301518482036040860152612cb98282612a47565b91505060608301518482036060860152612cd38282612a47565b9150506080830151612ce86080860182612c67565b508091505092915050565b60006020820190508181036000830152612d0d8184612c76565b905092915050565b600061014082019050612d2b600083018d612559565b8181036020830152612d3d818c61249a565b90508181036040830152612d51818b61249a565b90508181036060830152612d65818a61249a565b90508181036080830152612d79818961249a565b9050612d8860a0830188612559565b612d9560c0830187612559565b612da260e0830186612628565b612db06101008301856123bd565b612dbe6101208301846124df565b9b9a5050505050505050505050565b6000602082019050612de260008301846123bd565b92915050565b600061014083016000830151612e01600086018261291a565b5060208301518482036020860152612e198282612a47565b91505060408301518482036040860152612e338282612a47565b91505060608301518482036060860152612e4d8282612a47565b91505060808301518482036080860152612e678282612a47565b91505060a0830151612e7c60a086018261291a565b5060c0830151612e8f60c086018261291a565b5060e0830151612ea260e0860182612a80565b50610100830151612eb7610100860182612a27565b50610120830151612ecc610120860182612c67565b508091505092915050565b60006020820190508181036000830152612ef18184612de8565b905092915050565b60008060008060008060c08789031215612f1657612f15612328565b5b600087013567ffffffffffffffff811115612f3457612f3361232d565b5b612f4089828a016127d8565b965050602087013567ffffffffffffffff811115612f6157612f6061232d565b5b612f6d89828a016127d8565b955050604087013567ffffffffffffffff811115612f8e57612f8d61232d565b5b612f9a89828a016127d8565b945050606087013567ffffffffffffffff811115612fbb57612fba61232d565b5b612fc789828a016127d8565b9350506080612fd889828a0161259a565b92505060a087013567ffffffffffffffff811115612ff957612ff861232d565b5b61300589828a016127d8565b9150509295509295509295565b7f4e487b7100000000000000000000000000000000000000000000000000000000600052602260045260246000fd5b6000600282049050600182168061305957607f821691505b60208210810361306c5761306b613012565b5b50919050565b7f4f6e6c7920636f6e7472616374206f776e65722063616e20706572666f726d2060008201527f7468697320616374696f6e000000000000000000000000000000000000000000602082015250565b60006130ce602b8361244e565b91506130d982613072565b604082019050919050565b600060208201905081810360008301526130fd816130c1565b9050919050565b7f496e76616c696420726f6c650000000000000000000000000000000000000000600082015250565b600061313a600c8361244e565b915061314582613104565b602082019050919050565b600060208201905081810360008301526131698161312d565b9050919050565b7f496e76616c696420616464726573730000000000000000000000000000000000600082015250565b60006131a6600f8361244e565b91506131b182613170565b602082019050919050565b600060208201905081810360008301526131d581613199565b9050919050565b60008190508160005260206000209050919050565b60006020601f8301049050919050565b600082821b905092915050565b60006008830261323e7fffffffffffffffffffffffffffffffffffffffffffffffffffffffffffffffff82613201565b6132488683613201565b95508019841693508086168417925050509392505050565b6000819050919050565b600061328561328061327b8461254f565b613260565b61254f565b9050919050565b6000819050919050565b61329f8361326a565b6132b36132ab8261328c565b84845461320e565b825550505050565b600090565b6132c86132bb565b6132d3818484613296565b505050565b5b818110156132f7576132ec6000826132c0565b6001810190506132d9565b5050565b601f82111561333c5761330d816131dc565b613316846131f1565b81016020851015613325578190505b613339613331856131f1565b8301826132d8565b50505b505050565b600082821c905092915050565b600061335f60001984600802613341565b1980831691505092915050565b6000613378838361334e565b9150826002028217905092915050565b61339182612443565b67ffffffffffffffff8111156133aa576133a96126db565b5b6133b48254613041565b6133bf8282856132fb565b600060209050601f8311600181146133f257600084156133e0578287015190505b6133ea858261336c565b865550613452565b601f198416613400866131dc565b60005b8281101561342857848901518255600182019150602085019450602081019050613403565b868310156134455784890151613441601f89168261334e565b8355505b6001600288020188555050505b505050505050565b600060408201905061346f6000830185612434565b8181036020830152613481818461249a565b90509392505050565b7f4e487b7100000000000000000000000000000000000000000000000000000000600052603260045260246000fd5b7f4e487b7100000000000000000000000000000000000000000000000000000000600052601160045260246000fd5b60006134f38261254f565b91507fffffffffffffffffffffffffffffffffffffffffffffffffffffffffffffffff8203613525576135246134b9565b5b600182019050919050565b7f4f6e6c792072656769737465726564207061727469636970616e74732063616e60008201527f20706572666f726d207468697320616374696f6e000000000000000000000000602082015250565b600061358c60348361244e565b915061359782613530565b604082019050919050565b600060208201905081810360008301526135bb8161357f565b9050919050565b7f50726f6475637420646f6573206e6f7420657869737400000000000000000000600082015250565b60006135f860168361244e565b9150613603826135c2565b602082019050919050565b60006020820190508181036000830152613627816135eb565b9050919050565b600061363982612698565b915061364483612698565b9250828201905060ff81111561365d5761365c6134b9565b5b92915050565b7f496e76616c69642073746167652070726f6772657373696f6e00000000000000600082015250565b600061369960198361244e565b91506136a482613663565b602082019050919050565b600060208201905081810360008301526136c88161368c565b9050919050565b7f556e617574686f72697a656420666f7220746869732073746167650000000000600082015250565b6000613705601b8361244e565b9150613710826136cf565b602082019050919050565b60006020820190508181036000830152613734816136f8565b9050919050565b60006020820190506137506000830184612628565b92915050565b600081905092915050565b600061376c82612443565b6137768185613756565b935061378681856020860161245f565b80840191505092915050565b600061379e8284613761565b915081905092915050565b7f50726f64756374206e6f7420666f756e64000000000000000000000000000000600082015250565b60006137df60118361244e565b91506137ea826137a9565b602082019050919050565b6000602082019050818103600083015261380e816137d2565b9050919050565b7f556e617574686f72697a656420726f6c65000000000000000000000000000000600082015250565b600061384b60118361244e565b915061385682613815565b602082019050919050565b6000602082019050818103600083015261387a8161383e565b9050919050565b7f426174636820494420616c726561647920657869737473000000000000000000600082015250565b60006138b760178361244e565b91506138c282613881565b602082019050919050565b600060208201905081810360008301526138e6816138aa565b9050919050565b60006020820190508181036000830152613907818461249a565b90509291505056fea2646970667358221220cd723fba5355a0a296c401543a5e875546a46c3089d66cbaa932eeb738ed35ee64736f6c634300081c0033",
  "linkReferences": {},
  "deployedLinkReferences": {}
}